:020000040800F2
:10000000980600206D0100087501000877010008BE
:10001000790100087B0100087D0100080000000054
:100020000000000000000000000000007F01000848
:10003000810100080000000083010008850100081C
:100040008701000887010008870100088701000870
:100050008701000887010008870100088701000860
:100060008701000887010008870100088701000850
:100070008701000887010008870100088701000840
:100080008701000887010008870100088701000830
:100090008701000887010008870100088701000820
:1000A0008701000887010008870100088701000810
:1000B0008701000887010008870100088701000800
:1000C00087010008870100088701000887010008F0
:1000D00087010008870100088701000887010008E0
:1000E00087010008870100088701000800F002F876
:1000F00000F02CF80AA090E8000C82448344AAF196
:100100000107DA4501D100F021F8AFF2090EBAE893
:100110000F0013F0010F18BFFB1A43F0010318473B
:100120004C0500005C05000000230024002500268B
:10013000103A28BF78C1FBD8520728BF30C148BF4A
:100140000B6070471FB51FBD10B510BD00F071F8F2
:100150001146FFF7F7FF00F071F900F08FF803B4D4
:10016000FFF7F2FF03BC00F097F800000948804752
:1001700009480047FEE7FEE7FEE7FEE7FEE7FEE789
:10018000FEE7FEE7FEE7FEE704480549054A064BA1
:1001900070470000D5030008ED000008980000201B
:1001A0009806002098020020980200204FF0013CA1
:1001B00050F8042B51F8043B9A4221D1A2EB0C03D6
:1001C000934313EACC1317D150F8042B51F8043B96
:1001D0009A4215D1A2EB0C03934313EACC130BD133
:1001E00050F8042B51F8043B9A4209D1A2EB0C03BE
:1001F000934313EACC13DBD04FF00000704700BFED
:10020000D01A01BAB1FA81F101F0180122FA01F015
:10021000CB40DBB2C0B2C01AC1F120012CFA01F30D
:10022000D11A914311EAC311E6D170477047704764
:100230007047754600F02CF8AE46050069465346F7
:1002400020F00700854618B020B5FFF79DFFBDE8F8
:1002500020404FF000064FF000074FF000084FF02D
:10026000000BAC46ACE8C009ACE8C009ACE8C0097A
:10027000ACE8C00921F007018D46704710B504466F
:10028000AFF300802046BDE81040FFF768BF0000D4
:10029000004870470000002001491820ABBEFEE76F
:1002A000260002007047000080B500F001F880BD14
:1002B00084B000200390029041F20001C4F20201D8
:1002C000086840F480300860FFE741F20000C4F2A3
:1002D0000200006800F4003002900398013003909F
:1002E000FFE702990020019039B9FFE70398B0F5C4
:1002F000A06018BF01200190FFE70198C007002807
:10030000E3D1FFE741F20000C4F20200006880037D
:10031000002803D5FFE70120029002E000200290B0
:10032000FFE70298012851D1FFE742F20001C4F231
:100330000201086840F010000860086820F007001B
:100340000860086840F00200086041F20401C4F24D
:10035000020100910868086008680860086840F4B5
:1003600080600860086820F47C100860086840F429
:10037000E810086041F20001C4F20201086840F090
:1003800080700860FFE741F20000C4F202000068DC
:100390008001002801D4FFE7F5E741F20401C4F22F
:1003A0000201086820F003000860086840F00200BD
:1003B0000860FFE741F20400C4F20200006800F0A8
:1003C0000C00082801D0FFE7F4E700E0FFE704B0E5
:1003D0007047000080B541F20002C4F202021068CA
:1003E00040F00100106041F20401C4F2020108680B
:1003F0000023CFF6FF031840086010684FF6FF7324
:10040000CFF6F66318401060106820F4802010606A
:10041000086820F4FE00086041F20801C4F20201FD
:100420004FF41F000860FFF73FFF4EF60851CEF271
:1004300000014FF00060086080BD000080B584B00E
:100440000020039041F21801C4F20201086840F054
:1004500010000860086840F004000860086840F474
:100460008040086040F60401C4F20101029108686E
:1004700020F0F0000860086840F0B00008600868EC
:1004800020F470600860086840F48060086041F201
:100490000401C4F20101086820F4700008600868D3
:1004A00040F40010086043F60801C4F2010141F66F
:1004B0004C50088043F60C01C4F2010142F20C00DA
:1004C0000880FFE700F058F840F25460C0F60000E2
:1004D00000F0AEF840F26000C2F20000019000F0BF
:1004E000A7F840F25260C0F6000000F0A1F80198B1
:1004F00040F26561C0F60001FFF758FE40B9FFE722
:1005000041F21001C4F201014FF40050086014E000
:1005100040F26000C2F2000040F25E61C0F60001ED
:10052000FFF744FE40B9FFE741F21401C4F20101B4
:100530004FF400500860FFE7FFE740F29401C2F279
:10054000000100200860BDE781B0FFE743F600002E
:10055000C4F2010000888006002801D4FFE7F5E717
:1005600043F60400C4F2010000888DF803009DF8F2
:10057000030001B07047000080B582B0FFE7FFF7CD
:10058000E3FF8DF807009DF807000D2814D0FFE762
:100590009DF807000A280FD0FFE79DF8070040F2FA
:1005A0009403C2F200031A68511C196040F2600102
:1005B000C2F200018854FFE7FFE79DF80710002012
:1005C000009059B1FFE740F29400C2F200000168C8
:1005D00000203129B8BF01200090FFE70098C00734
:1005E0000028CCD1FFE740F29400C2F2000002687C
:1005F00040F26001C2F200010020885402B080BDC8
:1006000081B08DF80300FFE743F60000C4F201005B
:1006100000880006002801D4FFE7F5E79DF80300F5
:1006200043F60401C4F20101088001B070470000E4
:1006300080B582B00190FFE70198007838B1FFE7FC
:100640000198411C01910078FFF7DAFFF4E702B04E
:1006500080BD0A00726563656965643A20006C6557
:10066000646F6666006C65646F6E00007C0600084F
:0C0670000000002098060000280100088F
:040000050800016D81
:00000001FF
